{"contracts/CertificateRegistry.sol":{"CertificateRegistry":{"abi":[{"inputs":[],"stateMutability":"nonpayable","type":"constructor"},{"inputs":[{"internalType":"address","name":"owner","type":"address"}],"name":"OwnableInvalidOwner","type":"error"},{"inputs":[{"internalType":"address","name":"account","type":"address"}],"name":"OwnableUnauthorizedAccount","type":"error"},{"inputs":[],"name":"ReentrancyGuardReentrantCall","type":"error"},{"anonymous":false,"inputs":[{"indexed":true,"internalType":"string","name":"certId","type":"string"},{"indexed":true,"internalType":"address","name":"issuer","type":"address"},{"indexed":true,"internalType":"address","name":"student","type":"address"},{"indexed":false,"internalType":"uint256","name":"timestamp","type":"uint256"}],"name":"CertificateIssued","type":"event"},{"anonymous":false,"inputs":[{"indexed":true,"internalType":"string","name":"certId","type":"string"},{"indexed":true,"internalType":"address","name":"revokedBy","type":"address"}],"name":"CertificateRevoked","type":"event"},{"anonymous":false,"inputs":[{"indexed":true,"internalType":"address","name":"issuer","type":"address"}],"name":"IssuerAdded","type":"event"},{"anonymous":false,"inputs":[{"indexed":true,"internalType":"address","name":"issuer","type":"address"}],"name":"IssuerRemoved","type":"event"},{"anonymous":false,"inputs":[{"indexed":true,"internalType":"address","name":"previousOwner","type":"address"},{"indexed":true,"internalType":"address","name":"newOwner","type":"address"}],"name":"OwnershipTransferred","type":"event"},{"inputs":[{"internalType":"address","name":"_issuer","type":"address"}],"name":"addIssuer","outputs":[],"stateMutability":"nonpayable","type":"function"},{"inputs":[{"internalType":"address","name":"","type":"address"}],"name":"authorizedIssuers","outputs":[{"internalType":"bool","name":"","type":"bool"}],"stateMutability":"view","type":"function"},{"inputs":[{"internalType":"string","name":"_certId","type":"string"}],"name":"checkCertificate","outputs":[{"internalType":"bool","name":"exists","type":"bool"},{"internalType":"bool","name":"revoked","type":"bool"}],"stateMutability":"view","type":"function"},{"inputs":[{"internalType":"string","name":"_certId","type":"string"}],"name":"getCertificate","outputs":[{"components":[{"internalType":"string","name":"certId","type":"string"},{"internalType":"string","name":"hash","type":"string"},{"internalType":"string","name":"cid","type":"string"},{"internalType":"address","name":"issuer","type":"address"},{"internalType":"address","name":"student","type":"address"},{"internalType":"uint256","name":"timestamp","type":"uint256"},{"internalType":"bool","name":"revoked","type":"bool"},{"internalType":"string","name":"metadata","type":"string"}],"internalType":"struct CertificateRegistry.Certificate","name":"","type":"tuple"}],"stateMutability":"view","type":"function"},{"inputs":[{"internalType":"address","name":"_student","type":"address"}],"name":"getStudentCertificates","outputs":[{"internalType":"string[]","name":"","type":"string[]"}],"stateMutability":"view","type":"function"},{"inputs":[{"internalType":"string","name":"_certId","type":"string"},{"internalType":"string","name":"_hash","type":"string"},{"internalType":"string","name":"_cid","type":"string"},{"internalType":"address","name":"_student","type":"address"},{"internalType":"string","name":"_metadata","type":"string"}],"name":"issueCertificate","outputs":[],"stateMutability":"nonpayable","type":"function"},{"inputs":[],"name":"owner","outputs":[{"internalType":"address","name":"","type":"address"}],"stateMutability":"view","type":"function"},{"inputs":[{"internalType":"address","name":"_issuer","type":"address"}],"name":"removeIssuer","outputs":[],"stateMutability":"nonpayable","type":"function"},{"inputs":[],"name":"renounceOwnership","outputs":[],"stateMutability":"nonpayable","type":"function"},{"inputs":[{"internalType":"string","name":"_certId","type":"string"}],"name":"revokeCertificate","outputs":[],"stateMutability":"nonpayable","type":"function"},{"inputs":[{"internalType":"address","name":"","type":"address"},{"internalType":"uint256","name":"","type":"uint256"}],"name":"studentCertificates","outputs":[{"internalType":"string","name":"","type":"string"}],"stateMutability":"view","type":"function"},{"inputs":[{"internalType":"address","name":"newOwner","type":"address"}],"name":"transferOwnership","outputs":[],"stateMutability":"nonpayable","type":"function"}],"evm":{"bytecode":{"linkReferences":{},"object":"608060405234801561001057600080fd5b50338061003757604051631e4fbdf760e01b81526000600482015260240160405180910390fd5b6100408161004a565b506001805561009a565b600080546001600160a01b038381166001600160a01b0319831681178455604051919092169283917f8be0079c531659141344cd1fd0a4f28419497f9722a3daafe3b4186f6b6457e09190a35050565b611584806100a96000396000f3fe608060405234801561001057600080fd5b50600436106100b45760003560e01c8063c3934f0e11610071578063c3934f0e1461012f578063ebc63bc01461014f578063ed0f2e751461016f578063f2fde38b1461018f578063f731fa0f146101a2578063ffbd4dd5146101d557600080fd5b8063142e1542146100b957806320694db0146100ce57806347bc7093146100e1578063715018a6146100f45780637614b5ed146100fc5780638da5cb5b1461010f575b600080fd5b6100cc6100c7366004611071565b6101ff565b005b6100cc6100dc3660046110ca565b6103de565b6100cc6100ef3660046110ca565b6104e9565b6100cc6105a2565b6100cc61010a3660046110ec565b6105b6565b6000546040516001600160a01b0390911681526020015b60405180910390f35b61014261013d3660046111aa565b61098b565b6040516101269190611224565b61016261015d3660046110ca565b610a44565b6040516101269190611237565b61018261017d366004611071565b610b33565b6040516101269190611299565b6100cc61019d3660046110ca565b610e87565b6101c56101b03660046110ca565b60036020526000908152604090205460ff1681565b6040519015158152602001610126565b6101e86101e3366004611071565b610ec5565b604080519215158352901515602083015201610126565b3360009081526003602052604090205460ff166102375760405162461bcd60e51b815260040161022e9061136b565b60405180910390fd5b8060058160405161024891906113ac565b9081526040519081900360200190205460ff166102775760405162461bcd60e51b815260040161022e906113c8565b600060028360405161028991906113ac565b908152604051908190036020019020600681015490915060ff16156102f05760405162461bcd60e51b815260206004820152601860248201527f436572745265673a20416c7265616479207265766f6b65640000000000000000604482015260640161022e565b60038101546001600160a01b03163314806103245750336103196000546001600160a01b031690565b6001600160a01b0316145b61038a5760405162461bcd60e51b815260206004820152603160248201527f436572745265673a204f6e6c79206f726967696e616c20697373756572206f72604482015270206f776e65722063616e207265766f6b6560781b606482015260840161022e565b60068101805460ff1916600117905560405133906103a99085906113ac565b604051908190038120907f7b87df98e4ff33f07a9fbda6f93a6b69c498e48444877da8c54a83d3a43aee5b90600090a3505050565b6103e6610f27565b6001600160a01b0381166104345760405162461bcd60e51b8152602060048201526015602482015274436572745265673a205a65726f206164647265737360581b604482015260640161022e565b6001600160a01b03811660009081526003602052604090205460ff161561049d5760405162461bcd60e51b815260206004820152601b60248201527f436572745265673a20416c726561647920617574686f72697a65640000000000604482015260640161022e565b6001600160a01b038116600081815260036020526040808220805460ff19166001179055517f05e7c881d716bee8cb7ed92293133ba156704252439e5c502c277448f04e20c29190a250565b6104f1610f27565b6001600160a01b03811660009081526003602052604090205460ff166105595760405162461bcd60e51b815260206004820152601760248201527f436572745265673a204e6f7420617574686f72697a6564000000000000000000604482015260640161022e565b6001600160a01b038116600081815260036020526040808220805460ff19169055517faf66545c919a3be306ee446d8f42a9558b5b022620df880517bc9593ec0f2d529190a250565b6105aa610f27565b6105b46000610f54565b565b3360009081526003602052604090205460ff166105e55760405162461bcd60e51b815260040161022e9061136b565b6105ed610fa4565b60008551116106365760405162461bcd60e51b815260206004820152601560248201527410d95c9d149959ce88115b5c1d1e4818d95c9d1259605a1b604482015260640161022e565b83516040146106935760405162461bcd60e51b8152602060048201526024808201527f436572745265673a20496e76616c6964205348412d3235362068617368206c656044820152630dccee8d60e31b606482015260840161022e565b60008351116106d95760405162461bcd60e51b815260206004820152601260248201527110d95c9d149959ce88115b5c1d1e4810d25160721b604482015260640161022e565b6001600160a01b03821661072f5760405162461bcd60e51b815260206004820152601d60248201527f436572745265673a205a65726f2073747564656e742061646472657373000000604482015260640161022e565b60058560405161073f91906113ac565b9081526040519081900360200190205460ff16156107ab5760405162461bcd60e51b815260206004820152602360248201527f436572745265673a20436572746966696361746520616c72656164792065786960448201526273747360e81b606482015260840161022e565b6040805161010081018252868152602081018690528082018590523360608201526001600160a01b03841660808201524260a0820152600060c082015260e0810183905290516002906107ff9088906113ac565b9081526040519081900360200190208151819061081c908261148e565b5060208201516001820190610831908261148e565b5060408201516002820190610846908261148e565b5060608201516003820180546001600160a01b039283166001600160a01b031991821617909155608084015160048401805491909316911617905560a0820151600582015560c082015160068201805491151560ff1990921691909117905560e082015160078201906108b9908261148e565b5090505060016005866040516108cf91906113ac565b9081526040805160209281900383019020805460ff1916931515939093179092556001600160a01b038416600090815260048252918220805460018101825590835291200161091e868261148e565b50816001600160a01b0316336001600160a01b03168660405161094191906113ac565b604051908190038120428252907f9fe1c2a652f45331b1ebb6bf6344782dd1ea80b8c8aec7e0d362d0e43f5391559060200160405180910390a461098460018055565b5050505050565b600460205281600052604060002081815481106109a757600080fd5b906000526020600020016000915091505080546109c39061140b565b80601f01602080910402602001604051908101604052809291908181526020018280546109ef9061140b565b8015610a3c5780601f10610a1157610100808354040283529160200191610a3c565b820191906000526020600020905b815481529060010190602001808311610a1f57829003601f168201915b505050505081565b6001600160a01b0381166000908152600460209081526040808320805482518185028101850190935280835260609492939192909184015b82821015610b28578382906000526020600020018054610a9b9061140b565b80601f0160208091040260200160405190810160405280929190818152602001828054610ac79061140b565b8015610b145780601f10610ae957610100808354040283529160200191610b14565b820191906000526020600020905b815481529060010190602001808311610af757829003601f168201915b505050505081526020019060010190610a7c565b505050509050919050565b610b8f60405180610100016040528060608152602001606081526020016060815260200160006001600160a01b0316815260200160006001600160a01b0316815260200160008152602001600015158152602001606081525090565b81600581604051610ba091906113ac565b9081526040519081900360200190205460ff16610bcf5760405162461bcd60e51b815260040161022e906113c8565b600283604051610bdf91906113ac565b908152602001604051809103902060405180610100016040529081600082018054610c099061140b565b80601f0160208091040260200160405190810160405280929190818152602001828054610c359061140b565b8015610c825780601f10610c5757610100808354040283529160200191610c82565b820191906000526020600020905b815481529060010190602001808311610c6557829003601f168201915b50505050508152602001600182018054610c9b9061140b565b80601f0160208091040260200160405190810160405280929190818152602001828054610cc79061140b565b8015610d145780601f10610ce957610100808354040283529160200191610d14565b820191906000526020600020905b815481529060010190602001808311610cf757829003601f168201915b50505050508152602001600282018054610d2d9061140b565b80601f0160208091040260200160405190810160405280929190818152602001828054610d599061140b565b8015610da65780601f10610d7b57610100808354040283529160200191610da6565b820191906000526020600020905b815481529060010190602001808311610d8957829003601f168201915b505050918352505060038201546001600160a01b039081166020830152600483015416604082015260058201546060820152600682015460ff161515608082015260078201805460a090920191610dfc9061140b565b80601f0160208091040260200160405190810160405280929190818152602001828054610e289061140b565b8015610e755780601f10610e4a57610100808354040283529160200191610e75565b820191906000526020600020905b815481529060010190602001808311610e5857829003601f168201915b50505050508152505091505b50919050565b610e8f610f27565b6001600160a01b038116610eb957604051631e4fbdf760e01b81526000600482015260240161022e565b610ec281610f54565b50565b600080600583604051610ed891906113ac565b9081526040519081900360200190205460ff16915081610ef9576000610f20565b600283604051610f0991906113ac565b9081526040519081900360200190206006015460ff165b9050915091565b6000546001600160a01b031633146105b45760405163118cdaa760e01b815233600482015260240161022e565b600080546001600160a01b038381166001600160a01b0319831681178455604051919092169283917f8be0079c531659141344cd1fd0a4f28419497f9722a3daafe3b4186f6b6457e09190a35050565b600260015403610fc757604051633ee5aeb560e01b815260040160405180910390fd5b6002600155565b634e487b7160e01b600052604160045260246000fd5b600082601f830112610ff557600080fd5b813567ffffffffffffffff8082111561101057611010610fce565b604051601f8301601f19908116603f0116810190828211818310171561103857611038610fce565b8160405283815286602085880101111561105157600080fd5b836020870160208301376000602085830101528094505050505092915050565b60006020828403121561108357600080fd5b813567ffffffffffffffff81111561109a57600080fd5b6110a684828501610fe4565b949350505050565b80356001600160a01b03811681146110c557600080fd5b919050565b6000602082840312156110dc57600080fd5b6110e5826110ae565b9392505050565b600080600080600060a0868803121561110457600080fd5b853567ffffffffffffffff8082111561111c57600080fd5b61112889838a01610fe4565b9650602088013591508082111561113e57600080fd5b61114a89838a01610fe4565b9550604088013591508082111561116057600080fd5b61116c89838a01610fe4565b945061117a606089016110ae565b9350608088013591508082111561119057600080fd5b5061119d88828901610fe4565b9150509295509295909350565b600080604083850312156111bd57600080fd5b6111c6836110ae565b946020939093013593505050565b60005b838110156111ef5781810151838201526020016111d7565b50506000910152565b600081518084526112108160208601602086016111d4565b601f01601f19169290920160200192915050565b6020815260006110e560208301846111f8565b6000602080830181845280855180835260408601915060408160051b870101925083870160005b8281101561128c57603f1988860301845261127a8583516111f8565b9450928501929085019060010161125e565b5092979650505050505050565b60208152600082516101008060208501526112b86101208501836111f8565b91506020850151601f19808685030160408701526112d684836111f8565b935060408701519150808685030160608701526112f384836111f8565b93506060870151915061131160808701836001600160a01b03169052565b60808701516001600160a01b03811660a0880152915060a087015160c087015260c0870151915061134660e087018315159052565b60e087015191508086850301838701525061136183826111f8565b9695505050505050565b60208082526021908201527f436572745265673a204e6f7420616e20617574686f72697a65642069737375656040820152603960f91b606082015260800190565b600082516113be8184602087016111d4565b9190910192915050565b60208082526023908201527f436572745265673a20436572746966696361746520646f6573206e6f742065786040820152621a5cdd60ea1b606082015260800190565b600181811c9082168061141f57607f821691505b602082108103610e8157634e487b7160e01b600052602260045260246000fd5b601f82111561148957600081815260208120601f850160051c810160208610156114665750805b601f850160051c820191505b8181101561148557828155600101611472565b5050505b505050565b815167ffffffffffffffff8111156114a8576114a8610fce565b6114bc816114b6845461140b565b8461143f565b602080601f8311600181146114f157600084156114d95750858301515b600019600386901b1c1916600185901b178555611485565b600085815260208120601f198616915b8281101561152057888601518255948401946001909101908401611501565b508582101561153e5787850151600019600388901b60f8161c191681555b5050505050600190811b0190555056fea26469706673582212208d258871ae845fbebb8c38c31f03039d265cf5cdf4b47725e8212f71515dd3b964736f6c63430008140033","opcodes":"PUSH1 0x80 PUSH1 0x40 MSTORE CALLVALUE DUP1 ISZERO PUSH2 0x10 JUMPI PUSH1 0x0 DUP1 REVERT JUMPDEST POP CALLER DUP1 PUSH2 0x37 JUMPI PUSH1 0x40 MLOAD PUSH4 0x1E4FBDF7 PUSH1 0xE0 SHL DUP2 MSTORE PUSH1 0x0 PUSH1 0x4 DUP3 ADD MSTORE PUSH1 0x24 ADD PUSH1 0x40 MLOAD DUP1 SWAP2 SUB SWAP1 REVERT JUMPDEST PUSH2 0x40 DUP2 PUSH2 0x4A JUMP JUMPDEST POP PUSH1 0x1 DUP1 SSTORE PUSH2 0x9A JUMP JUMPDEST PUSH1 0x0 DUP1 SLOAD PUSH1 0x1 PUSH1 0x1 PUSH1 0xA0 SHL SUB DUP4 DUP2 AND PUSH1 0x1 PUSH1 0x1 PUSH1 0xA0 SHL SUB NOT DUP4 AND DUP2 OR DUP5 SSTORE PUSH1 0x40 MLOAD SWAP2 SWAP1 SWAP3 AND SWAP3 DUP4 SWAP2 PUSH32 0x8BE0079C531659141344CD1FD0A4F28419497F9722A3DAAFE3B4186F6B6457E0 SWAP2 SWAP1 LOG3 POP POP JUMP JUMPDEST PUSH2 0x1584 DUP1 PUSH2 0xA9 PUSH1 0x0 CODECOPY PUSH1 0x0 RETURN INVALID PUSH1 0x80 PUSH1 0x40 MSTORE CALLVALUE DUP1 ISZERO PUSH2 0x10 JUMPI PUSH1 0x0 DUP1 REVERT JUMPDEST POP PUSH1 0x4 CALLDATASIZE LT PUSH2 0xB4 JUMPI PUSH1 0x0 CALLDATALOAD PUSH1 0xE0 SHR DUP1 PUSH4 0xC3934F0E GT PUSH2 0x71 JUMPI DUP1 PUSH4 0xC3934F0E EQ PUSH2 0x12F JUMPI DUP1 PUSH4 0xEBC63BC0 EQ PUSH2 0x14F JUMPI DUP1 PUSH4 0xED0F2E75 EQ PUSH2 0x16F JUMPI DUP1 PUSH4 0xF2FDE38B EQ PUSH2 0x18F JUMPI DUP1 PUSH4 0xF731FA0F EQ PUSH2 0x1A2 JUMPI DUP1 PUSH4 0xFFBD4DD5 EQ PUSH2 0x1D5 JUMPI PUSH1 0x0 DUP1 REVERT JUMPDEST DUP1 PUSH4 0x142E1542 EQ PUSH2 0xB9 JUMPI DUP1 PUSH4 0x20694DB0 EQ PUSH2 0xCE JUMPI DUP1 PUSH4 0x47BC7093 EQ PUSH2 0xE1 JUMPI DUP1 PUSH4 0x715018A6 EQ PUSH2 0xF4 JUMPI DUP1 PUSH4 0x7614B5ED EQ PUSH2 0xFC JUMPI DUP1 PUSH4 0x8DA5CB5B EQ PUSH2 0x10F JUMPI JUMPDEST PUSH1 0x0 DUP1 REVERT JUMPDEST PUSH2 0xCC PUSH2 0xC7 CALLDATASIZE PUSH1 0x4 PUSH2 0x1071 JUMP JUMPDEST PUSH2 0x1FF JUMP JUMPDEST STOP JUMPDEST PUSH2 0xCC PUSH2 0xDC CALLDATASIZE PUSH1 0x4 PUSH2 0x10CA JUMP JUMPDEST PUSH2 0x3DE JUMP JUMPDEST PUSH2 0xCC PUSH2 0xEF CALLDATASIZE PUSH1 0x4 PUSH2 0x10CA JUMP JUMPDEST PUSH2 0x4E9 JUMP JUMPDEST PUSH2 0xCC PUSH2 0x5A2 JUMP JUMPDEST PUSH2 0xCC PUSH2 0x10A CALLDATASIZE PUSH1 0x4 PUSH2 0x10EC JUMP JUMPDEST PUSH2 0x5B6 JUMP JUMPDEST PUSH1 0x0 SLOAD PUSH1 0x40 MLOAD PUSH1 0x1 PUSH1 0x1 PUSH1 0xA0 SHL SUB SWAP1 SWAP2 AND DUP2 MSTORE PUSH1 0x20 ADD JUMPDEST PUSH1 0x40 MLOAD DUP1 SWAP2 SUB SWAP1 RETURN JUMPDEST PUSH2 0x142 PUSH2 0x13D CALLDATASIZE PUSH1 0x4 PUSH2 0x11AA JUMP JUMPDEST PUSH2 0x98B JUMP JUMPDEST PUSH1 0x40 MLOAD PUSH2 0x126 SWAP2 SWAP1 PUSH2 0x1224 JUMP JUMPDEST PUSH2 0x162 PUSH2 0x15D CALLDATASIZE PUSH1 0x4 PUSH2 0x10CA JUMP JUMPDEST PUSH2 0xA44 JUMP JUMPDEST PUSH1 0x40 MLOAD PUSH2 0x126 SWAP2 SWAP1 PUSH2 0x1237 JUMP JUMPDEST PUSH2 0x182 PUSH2 0x17D CALLDATASIZE PUSH1 0x4 PUSH2 0x1071 JUMP JUMPDEST PUSH2 0xB33 JUMP JUMPDEST PUSH1 0x40 MLOAD PUSH2 0x126 SWAP2 SWAP1 PUSH2 0x1299 JUMP JUMPDEST PUSH2 0xCC PUSH2 0x19D CALLDATASIZE PUSH1 0x4 PUSH2 0x10CA JUMP JUMPDEST PUSH2 0xE87 JUMP JUMPDEST PUSH2 0x1C5 PUSH2 0x1B0 CALLDATASIZE PUSH1 0x4 PUSH2 0x10CA JUMP JUMPDEST PUSH1 0x3 PUSH1 0x20 MSTORE PUSH1 0x0 SWAP1 DUP2 MSTORE PUSH1 0x40 SWAP1 KECCAK256 SLOAD PUSH1 0xFF AND DUP2 JUMP JUMPDEST PUSH1 0x40 MLOAD SWAP1 ISZERO ISZERO DUP2 MSTORE PUSH1 0x20 ADD PUSH2 0x126 JUMP JUMPDEST PUSH2 0x1E8 PUSH2 0x1E3 CALLDATASIZE PUSH1 0x4 PUSH2 0x1071 JUMP JUMPDEST PUSH2 0xEC5 JUMP JUMPDEST PUSH1 0x40 DUP1 MLOAD SWAP3 ISZERO ISZERO DUP4 MSTORE SWAP1 ISZERO ISZERO PUSH1 0x20 DUP4 ADD MSTORE ADD PUSH2 0x126 JUMP JUMPDEST CALLER PUSH1 0x0 SWAP1 DUP2 MSTORE PUSH1 0x3 PUSH1 0x20 MSTORE PUSH1 0x40 SWAP1 KECCAK256 SLOAD PUSH1 0xFF AND PUSH2 0x237 JUMPI PUSH1 0x40 MLOAD PUSH3 0x461BCD PUSH1 0xE5 SHL DUP2 MSTORE PUSH1 0x4 ADD PUSH2 0x22E SWAP1 PUSH2 0x136B JUMP JUMPDEST PUSH1 0x40 MLOAD DUP1 SWAP2 SUB SWAP1 REVERT JUMPDEST DUP1 PUSH1 0x5 DUP2 PUSH1 0x40 MLOAD PUSH2 0x248 SWAP2 SWAP1 PUSH2 0x13AC JUMP JUMPDEST SWAP1 DUP2 MSTORE PUSH1 0x40 MLOAD SWAP1 DUP2 SWAP1 SUB PUSH1 0x20 ADD SWAP1 KECCAK256 SLOAD PUSH1 0xFF AND PUSH2 0x277 JUMPI PUSH1 0x40 MLOAD PUSH3 0x461BCD PUSH1 0xE5 SHL DUP2 MSTORE PUSH1 0x4 ADD PUSH2 0x22E SWAP1 PUSH2 0x13C8 JUMP JUMPDEST PUSH1 0x0 PUSH1 0x2 DUP4 PUSH1 0x40 MLOAD PUSH2 0x289 SWAP2 SWAP1 PUSH2 0x13AC JUMP JUMPDEST SWAP1 DUP2 MSTORE PUSH1 0x40 MLOAD SWAP1 DUP2 SWAP1 SUB PUSH1 0x20 ADD SWAP1 KECCAK256 PUSH1 0x6 DUP2 ADD SLOAD SWAP1 SWAP2 POP PUSH1 0xFF AND ISZERO PUSH2 0x2F0 JUMPI PUSH1 0x40 MLOAD PUSH3 0x461BCD PUSH1 0xE5 SHL DUP2 MSTORE PUSH1 0x20 PUSH1 0x4 DUP3 ADD MSTORE PUSH1 0x18 PUSH1 0x24 DUP3 ADD MSTORE PUSH32 0x436572745265673A20416C7265616479207265766F6B65640000000000000000 PUSH1 0x44 DUP3 ADD MSTORE PUSH1 0x64 ADD PUSH2 0x22E JUMP JUMPDEST PUSH1 0x3 DUP2 ADD SLOAD PUSH1 0x1 PUSH1 0x1 PUSH1 0xA0 SHL SUB AND CALLER EQ DUP1 PUSH2 0x324 JUMPI POP CALLER PUSH2 0x319 PUSH1 0x0 SLOAD PUSH1 0x1 PUSH1 0x1 PUSH1 0xA0 SHL SUB AND SWAP1 JUMP JUMPDEST PUSH1 0x1 PUSH1 0x1 PUSH1 0xA0 SHL SUB AND EQ JUMPDEST PUSH2 0x38A JUMPI PUSH1 0x40 MLOAD PUSH3 0x461BCD PUSH1 0xE5 SHL DUP2 MSTORE PUSH1 0x20 PUSH1 0x4 DUP3 ADD MSTORE PUSH1 0x31 PUSH1 0x24 DUP3 ADD MSTORE PUSH32 0x436572745265673A204F6E6C79206F726967696E616C20697373756572206F72 PUSH1 0x44 DUP3 ADD MSTORE PUSH17 0x206F776E65722063616E207265766F6B65 PUSH1 0x78 SHL PUSH1 0x64 DUP3 ADD MSTORE PUSH1 0x84 ADD PUSH2 0x22E JUMP JUMPDEST PUSH1 0x6 DUP2 ADD DUP1 SLOAD PUSH1 0xFF NOT AND PUSH1 0x1 OR SWAP1 SSTORE PUSH1 0x40 MLOAD CALLER SWAP1 PUSH2 0x3A9 SWAP1 DUP6 SWAP1 PUSH2 0x13AC JUMP JUMPDEST PUSH1 0x40 MLOAD SWAP1 DUP2 SWAP1 SUB DUP2 KECCAK256 SWAP1 PUSH32 0x7B87DF98E4FF33F07A9FBDA6F93A6B69C498E48444877DA8C54A83D3A43AEE5B SWAP1 PUSH1 0x0 SWAP1 LOG3 POP POP POP JUMP JUMPDEST PUSH2 0x3E6 PUSH2 0xF27 JUMP JUMPDEST PUSH1 0x1 PUSH1 0x1 PUSH1 0xA0 SHL SUB DUP2 AND PUSH2 0x434 JUMPI PUSH1 0x40 MLOAD PUSH3 0x461BCD PUSH1 0xE5 SHL DUP2 MSTORE PUSH1 0x20 PUSH1 0x4 DUP3 ADD MSTORE PUSH1 0x15 PUSH1 0x24 DUP3 ADD MSTORE PUSH21 0x436572745265673A205A65726F2061646472657373 PUSH1 0x58 SHL PUSH1 0x44 DUP3 ADD MSTORE PUSH1 0x64 ADD PUSH2 0x22E JUMP JUMPDEST PUSH1 0x1 PUSH1 0x1 PUSH1 0xA0 SHL SUB DUP2 AND PUSH1 0x0 SWAP1 DUP2 MSTORE PUSH1 0x3 PUSH1 0x20 MSTORE PUSH1 0x40 SWAP1 KECCAK256 SLOAD PUSH1 0xFF AND ISZERO PUSH2 0x49D JUMPI PUSH1 0x40 MLOAD PUSH3 0x461BCD PUSH1 0xE5 SHL DUP2 MSTORE PUSH1 0x20 PUSH1 0x4 DUP3 ADD MSTORE PUSH1 0x1B PUSH1 0x24 DUP3 ADD MSTORE PUSH32 0x436572745265673A20416C726561647920617574686F72697A65640000000000 PUSH1 0x44 DUP3 ADD MSTORE PUSH1 0x64 ADD PUSH2 0x22E JUMP JUMPDEST PUSH1 0x1 PUSH1 0x1 PUSH1 0xA0 SHL SUB DUP2 AND PUSH1 0x0 DUP2 DUP2 MSTORE PUSH1 0x3 PUSH1 0x20 MSTORE PUSH1 0x40 DUP1 DUP3 KECCAK256 DUP1 SLOAD PUSH1 0xFF NOT AND PUSH1 0x1 OR SWAP1 SSTORE MLOAD PUSH32 0x5E7C881D716BEE8CB7ED92293133BA156704252439E5C502C277448F04E20C2 SWAP2 SWAP1 LOG2 POP JUMP JUMPDEST PUSH2 0x4F1 PUSH2 0xF27 JUMP JUMPDEST PUSH1 0x1 PUSH1 0x1 PUSH1 0xA0 SHL SUB DUP2 AND PUSH1 0x0 SWAP1 DUP2 MSTORE PUSH1 0x3 PUSH1 0x20 MSTORE PUSH1 0x40 SWAP1 KECCAK256 SLOAD PUSH1 0xFF AND PUSH2 0x559 JUMPI PUSH1 0x40 MLOAD PUSH3 0x461BCD PUSH1 0xE5 SHL DUP2 MSTORE PUSH1 0x20 PUSH1 0x4 DUP3 ADD MSTORE PUSH1 0x17 PUSH1 0x24 DUP3 ADD MSTORE PUSH32 0x436572745265673A204E6F7420617574686F72697A6564000000000000000000 PUSH1 0x44 DUP3 ADD MSTORE PUSH1 0x64 ADD PUSH2 0x22E JUMP JUMPDEST PUSH1 0x1 PUSH1 0x1 PUSH1 0xA0 SHL SUB DUP2 AND PUSH1 0x0 DUP2 DUP2 MSTORE PUSH1 0x3 PUSH1 0x20 MSTORE PUSH1 0x40 DUP1 DUP3 KECCAK256 DUP1 SLOAD PUSH1 0xFF NOT AND SWAP1 SSTORE MLOAD PUSH32 0xAF66545C919A3BE306EE446D8F42A9558B5B022620DF880517BC9593EC0F2D52 SWAP2 SWAP1 LOG2 POP JUMP JUMPDEST PUSH2 0x5AA PUSH2 0xF27 JUMP JUMPDEST PUSH2 0x5B4 PUSH1 0x0 PUSH2 0xF54 JUMP JUMPDEST JUMP JUMPDEST CALLER PUSH1 0x0 SWAP1 DUP2 MSTORE PUSH1 0x3 PUSH1 0x20 MSTORE PUSH1 0x40 SWAP1 KECCAK256 SLOAD PUSH1 0xFF AND PUSH2 0x5E5 JUMPI PUSH1 0x40 MLOAD PUSH3 0x461BCD PUSH1 0xE5 SHL DUP2 MSTORE PUSH1 0x4 ADD PUSH2 0x22E SWAP1 PUSH2 0x136B JUMP JUMPDEST PUSH2 0x5ED PUSH2 0xFA4 JUMP JUMPDEST PUSH1 0x0 DUP6 MLOAD GT PUSH2 0x636 JUMPI PUSH1 0x40 MLOAD PUSH3 0x461BCD PUSH1 0xE5 SHL DUP2 MSTORE PUSH1 0x20 PUSH1 0x4 DUP3 ADD MSTORE PUSH1 0x15 PUSH1 0x24 DUP3 ADD MSTORE PUSH21 0x10D95C9D149959CE88115B5C1D1E4818D95C9D1259 PUSH1 0x5A SHL PUSH1 0x44 DUP3 ADD MSTORE PUSH1 0x64 ADD PUSH2 0x22E JUMP JUMPDEST DUP4 MLOAD PUSH1 0x40 EQ PUSH2 0x693 JUMPI PUSH1 0x40 MLOAD PUSH3 0x461BCD PUSH1 0xE5 SHL DUP2 MSTORE PUSH1 0x20 PUSH1 0x4 DUP3 ADD MSTORE PUSH1 0x24 DUP1 DUP3 ADD MSTORE PUSH32 0x436572745265673A20496E76616C6964205348412D3235362068617368206C65 PUSH1 0x44 DUP3 ADD MSTORE PUSH4 0xDCCEE8D PUSH1 0xE3 SHL PUSH1 0x64 DUP3 ADD MSTORE PUSH1 0x84 ADD PUSH2 0x22E JUMP JUMPDEST PUSH1 0x0 DUP4 MLOAD GT PUSH2 0x6D9 JUMPI PUSH1 0x40 MLOAD PUSH3 0x461BCD PUSH1 0xE5 SHL DUP2 MSTORE PUSH1 0x20 PUSH1 0x4 DUP3 ADD MSTORE PUSH1 0x12 PUSH1 0x24 DUP3 ADD MSTORE PUSH18 0x10D95C9D149959CE88115B5C1D1E4810D251 PUSH1 0x72 SHL PUSH1 0x44 DUP3 ADD MSTORE PUSH1 0x64 ADD PUSH2 0x22E JUMP JUMPDEST PUSH1 0x1 PUSH1 0x1 PUSH1 0xA0 SHL SUB DUP3 AND PUSH2 0x72F JUMPI PUSH1 0x40 MLOAD PUSH3 0x461BCD PUSH1 0xE5 SHL DUP2 MSTORE PUSH1 0x20 PUSH1 0x4 DUP3 ADD MSTORE PUSH1 0x1D PUSH1 0x24 DUP3 ADD MSTORE PUSH32 0x436572745265673A205A65726F2073747564656E742061646472657373000000 PUSH1 0x44 DUP3 ADD MSTORE PUSH1 0x64 ADD PUSH2 0x22E JUMP JUMPDEST PUSH1 0x5 DUP6 PUSH1 0x40 MLOAD PUSH2 0x73F SWAP2 SWAP1 PUSH2 0x13AC JUMP JUMPDEST SWAP1 DUP2 MSTORE PUSH1 0x40 MLOAD SWAP1 DUP2 SWAP1 SUB PUSH1 0x20 ADD SWAP1 KECCAK256 SLOAD PUSH1 0xFF AND ISZERO PUSH2 0x7AB JUMPI PUSH1 0x40 MLOAD PUSH3 0x461BCD PUSH1 0xE5 SHL DUP2 MSTORE PUSH1 0x20 PUSH1 0x4 DUP3 ADD MSTORE PUSH1 0x23 PUSH1 0x24 DUP3 ADD MSTORE PUSH32 0x436572745265673A20436572746966696361746520616C726561647920657869 PUSH1 0x44 DUP3 ADD MSTORE PUSH3 0x737473 PUSH1 0xE8 SHL PUSH1 0x64 DUP3 ADD MSTORE PUSH1 0x84 ADD PUSH2 0x22E JUMP JUMPDEST PUSH1 0x40 DUP1 MLOAD PUSH2 0x100 DUP2 ADD DUP3 MSTORE DUP7 DUP2 MSTORE PUSH1 0x20 DUP2 ADD DUP7 SWAP1 MSTORE DUP1 DUP3 ADD DUP6 SWAP1 MSTORE CALLER PUSH1 0x60 DUP3 ADD MSTORE PUSH1 0x1 PUSH1 0x1 PUSH1 0xA0 SHL SUB DUP5 AND PUSH1 0x80 DUP3 ADD MSTORE TIMESTAMP PUSH1 0xA0 DUP3 ADD MSTORE PUSH1 0x0 PUSH1 0xC0 DUP3 ADD MSTORE PUSH1 0xE0 DUP2 ADD DUP4 SWAP1 MSTORE SWAP1 MLOAD PUSH1 0x2 SWAP1 PUSH2 0x7FF SWAP1 DUP9 SWAP1 PUSH2 0x13AC JUMP JUMPDEST SWAP1 DUP2 MSTORE PUSH1 0x40 MLOAD SWAP1 DUP2 SWAP1 SUB PUSH1 0x20 ADD SWAP1 KECCAK256 DUP2 MLOAD DUP2 SWAP1 PUSH2 0x81C SWAP1 DUP3 PUSH2 0x148E JUMP JUMPDEST POP PUSH1 0x20 DUP3 ADD MLOAD PUSH1 0x1 DUP3 ADD SWAP1 PUSH2 0x831 SWAP1 DUP3 PUSH2 0x148E JUMP JUMPDEST POP PUSH1 0x40 DUP3 ADD MLOAD PUSH1 0x2 DUP3 ADD SWAP1 PUSH2 0x846 SWAP1 DUP3 PUSH2 0x148E JUMP JUMPDEST POP PUSH1 0x60 DUP3 ADD MLOAD PUSH1 0x3 DUP3 ADD DUP1 SLOAD PUSH1 0x1 PUSH1 0x1 PUSH1 0xA0 SHL SUB SWAP3 DUP4 AND PUSH1 0x1 PUSH1 0x1 PUSH1 0xA0 SHL SUB NOT SWAP2 DUP3 AND OR SWAP1 SWAP2 SSTORE PUSH1 0x80 DUP5 ADD MLOAD PUSH1 0x4 DUP5 ADD DUP1 SLOAD SWAP2 SWAP1 SWAP4 AND SWAP2 AND OR SWAP1 SSTORE PUSH1 0xA0 DUP3 ADD MLOAD PUSH1 0x5 DUP3 ADD SSTORE PUSH1 0xC0 DUP3 ADD MLOAD PUSH1 0x6 DUP3 ADD DUP1 SLOAD SWAP2 ISZERO ISZERO PUSH1 0xFF NOT SWAP1 SWAP3 AND SWAP2 SWAP1 SWAP2 OR SWAP1 SSTORE PUSH1 0xE0 DUP3 ADD MLOAD PUSH1 0x7 DUP3 ADD SWAP1 PUSH2 0x8B9 SWAP1 DUP3 PUSH2 0x148E JUMP JUMPDEST POP SWAP1 POP POP PUSH1 0x1 PUSH1 0x5 DUP7 PUSH1 0x40 MLOAD PUSH2 0x8CF SWAP2 SWAP1 PUSH2 0x13AC JUMP JUMPDEST SWAP1 DUP2 MSTORE PUSH1 0x40 DUP1 MLOAD PUSH1 0x20 SWAP3 DUP2 SWAP1 SUB DUP4 ADD SWAP1 KECCAK256 DUP1 SLOAD PUSH1 0xFF NOT AND SWAP4 ISZERO ISZERO SWAP4 SWAP1 SWAP4 OR SWAP1 SWAP3 SSTORE PUSH1 0x1 PUSH1 0x1 PUSH1 0xA0 SHL SUB DUP5 AND PUSH1 0x0 SWAP1 DUP2 MSTORE PUSH1 0x4 DUP3 MSTORE SWAP2 DUP3 KECCAK256 DUP1 SLOAD PUSH1 0x1 DUP2 ADD DUP3 SSTORE SWAP1 DUP4 MSTORE SWAP2 KECCAK256 ADD PUSH2 0x91E DUP7 DUP3 PUSH2 0x148E JUMP JUMPDEST POP DUP2 PUSH1 0x1 PUSH1 0x1 PUSH1 0xA0 SHL SUB AND CALLER PUSH1 0x1 PUSH1 0x1 PUSH1 0xA0 SHL SUB AND DUP7 PUSH1 0x40 MLOAD PUSH2 0x941 SWAP2 SWAP1 PUSH2 0x13AC JUMP JUMPDEST PUSH1 0x40 MLOAD SWAP1 DUP2 SWAP1 SUB DUP2 KECCAK256 TIMESTAMP DUP3 MSTORE SWAP1 PUSH32 0x9FE1C2A652F45331B1EBB6BF6344782DD1EA80B8C8AEC7E0D362D0E43F539155 SWAP1 PUSH1 0x20 ADD PUSH1 0x40 MLOAD DUP1 SWAP2 SUB SWAP1 LOG4 PUSH2 0x984 PUSH1 0x1 DUP1 SSTORE JUMP JUMPDEST POP POP POP POP POP JUMP JUMPDEST PUSH1 0x4 PUSH1 0x20 MSTORE DUP2 PUSH1 0x0 MSTORE PUSH1 0x40 PUSH1 0x0 KECCAK256 DUP2 DUP2 SLOAD DUP2 LT PUSH2 0x9A7 JUMPI PUSH1 0x0 DUP1 REVERT JUMPDEST SWAP1 PUSH1 0x0 MSTORE PUSH1 0x20 PUSH1 0x0 KECCAK256 ADD PUSH1 0x0 SWAP2 POP SWAP2 POP POP DUP1 SLOAD PUSH2 0x9C3 SWAP1 PUSH2 0x140B JUMP JUMPDEST DUP1 PUSH1 0x1F ADD PUSH1 0x20 DUP1 SWAP2 DIV MUL PUSH1 0x20 ADD PUSH1 0x40 MLOAD SWAP1 DUP2 ADD PUSH1 0x40 MSTORE DUP1 SWAP3 SWAP2 SWAP1 DUP2 DUP2 MSTORE PUSH1 0x20 ADD DUP3 DUP1 SLOAD PUSH2 0x9EF SWAP1 PUSH2 0x140B JUMP JUMPDEST DUP1 ISZERO PUSH2 0xA3C JUMPI DUP1 PUSH1 0x1F LT PUSH2 0xA11 JUMPI PUSH2 0x100 DUP1 DUP4 SLOAD DIV MUL DUP4 MSTORE SWAP2 PUSH1 0x20 ADD SWAP2 PUSH2 0xA3C JUMP JUMPDEST DUP3 ADD SWAP2 SWAP1 PUSH1 0x0 MSTORE PUSH1 0x20 PUSH1 0x0 KECCAK256 SWAP1 JUMPDEST DUP2 SLOAD DUP2 MSTORE SWAP1 PUSH1 0x1 ADD SWAP1 PUSH1 0x20 ADD DUP1 DUP4 GT PUSH2 0xA1F JUMPI DUP3 SWAP1 SUB PUSH1 0x1F AND DUP3 ADD SWAP2 JUMPDEST POP POP POP POP POP DUP2 JUMP JUMPDEST PUSH1 0x1 PUSH1 0x1 PUSH1 0xA0 SHL SUB DUP2 AND PUSH1 0x0 SWAP1 DUP2 MSTORE PUSH1 0x4 PUSH1 0x20 SWAP1 DUP2 MSTORE PUSH1 0x40 DUP1 DUP4 KECCAK256 DUP1 SLOAD DUP3 MLOAD DUP2 DUP6 MUL DUP2 ADD DUP6 ADD SWAP1 SWAP4 MSTORE DUP1 DUP4 MSTORE PUSH1 0x60 SWAP5 SWAP3 SWAP4 SWAP2 SWAP3 SWAP1 SWAP2 DUP5 ADD JUMPDEST DUP3 DUP3 LT ISZERO PUSH2 0xB28 JUMPI DUP4 DUP3 SWAP1 PUSH1 0x0 MSTORE PUSH1 0x20 PUSH1 0x0 KECCAK256 ADD DUP1 SLOAD PUSH2 0xA9B SWAP1 PUSH2 0x140B JUMP JUMPDEST DUP1 PUSH1 0x1F ADD PUSH1 0x20 DUP1 SWAP2 DIV MUL PUSH1 0x20 ADD PUSH1 0x40 MLOAD SWAP1 DUP2 ADD PUSH1 0x40 MSTORE DUP1 SWAP3 SWAP2 SWAP1 DUP2 DUP2 MSTORE PUSH1 0x20 ADD DUP3 DUP1 SLOAD PUSH2 0xAC7 SWAP1 PUSH2 0x140B JUMP JUMPDEST DUP1 ISZERO PUSH2 0xB14 JUMPI DUP1 PUSH1 0x1F LT PUSH2 0xAE9 JUMPI PUSH2 0x100 DUP1 DUP4 SLOAD DIV MUL DUP4 MSTORE SWAP2 PUSH1 0x20 ADD SWAP2 PUSH2 0xB14 JUMP JUMPDEST DUP3 ADD SWAP2 SWAP1 PUSH1 0x0 MSTORE PUSH1 0x20 PUSH1 0x0 KECCAK256 SWAP1 JUMPDEST DUP2 SLOAD DUP2 MSTORE SWAP1 PUSH1 0x1 ADD SWAP1 PUSH1 0x20 ADD DUP1 DUP4 GT PUSH2 0xAF7 JUMPI DUP3 SWAP1 SUB PUSH1 0x1F AND DUP3 ADD SWAP2 JUMPDEST POP POP POP POP POP DUP2 MSTORE PUSH1 0x20 ADD SWAP1 PUSH1 0x1 ADD SWAP1 PUSH2 0xA7C JUMP JUMPDEST POP POP POP POP SWAP1 POP SWAP2 SWAP1 POP JUMP JUMPDEST PUSH2 0xB8F PUSH1 0x40 MLOAD DUP1 PUSH2 0x100 ADD PUSH1 0x40 MSTORE DUP1 PUSH1 0x60 DUP2 MSTORE PUSH1 0x20 ADD PUSH1 0x60 DUP2 MSTORE PUSH1 0x20 ADD PUSH1 0x60 DUP2 MSTORE PUSH1 0x20 ADD PUSH1 0x0 PUSH1 0x1 PUSH1 0x1 PUSH1 0xA0 SHL SUB AND DUP2 MSTORE PUSH1 0x20 ADD PUSH1 0x0 PUSH1 0x1 PUSH1 0x1 PUSH1 0xA0 SHL SUB AND DUP2 MSTORE PUSH1 0x20 ADD PUSH1 0x0 DUP2 MSTORE PUSH1 0x20 ADD PUSH1 0x0 ISZERO ISZERO DUP2 MSTORE PUSH1 0x20 ADD PUSH1 0x60 DUP2 MSTORE POP SWAP1 JUMP JUMPDEST DUP2 PUSH1 0x5 DUP2 PUSH1 0x40 MLOAD PUSH2 0xBA0 SWAP2 SWAP1 PUSH2 0x13AC JUMP JUMPDEST SWAP1 DUP2 MSTORE PUSH1 0x40 MLOAD SWAP1 DUP2 SWAP1 SUB PUSH1 0x20 ADD SWAP1 KECCAK256 SLOAD PUSH1 0xFF AND PUSH2 0xBCF JUMPI PUSH1 0x40 MLOAD PUSH3 0x461BCD PUSH1 0xE5 SHL DUP2 MSTORE PUSH1 0x4 ADD PUSH2 0x22E SWAP1 PUSH2 0x13C8 JUMP JUMPDEST PUSH1 0x2 DUP4 PUSH1 0x40 MLOAD PUSH2 0xBDF SWAP2 SWAP1 PUSH2 0x13AC JUMP JUMPDEST SWAP1 DUP2 MSTORE PUSH1 0x20 ADD PUSH1 0x40 MLOAD DUP1 SWAP2 SUB SWAP1 KECCAK256 PUSH1 0x40 MLOAD DUP1 PUSH2 0x100 ADD PUSH1 0x40 MSTORE SWAP1 DUP2 PUSH1 0x0 DUP3 ADD DUP1 SLOAD PUSH2 0xC09 SWAP1 PUSH2 0x140B JUMP JUMPDEST DUP1 PUSH1 0x1F ADD PUSH1 0x20 DUP1 SWAP2 DIV MUL PUSH1 0x20 ADD PUSH1 0x40 MLOAD SWAP1 DUP2 ADD PUSH1 0x40 MSTORE DUP1 SWAP3 SWAP2 SWAP1 DUP2 DUP2 MSTORE PUSH1 0x20 ADD DUP3 DUP1 SLOAD PUSH2 0xC35 SWAP1 PUSH2 0x140B JUMP JUMPDEST DUP1 ISZERO PUSH2 0xC82 JUMPI DUP1 PUSH1 0x1F LT PUSH2 0xC57 JUMPI PUSH2 0x100 DUP1 DUP4 SLOAD DIV MUL DUP4 MSTORE SWAP2 PUSH1 0x20 ADD SWAP2 PUSH2 0xC82 JUMP JUMPDEST DUP3 ADD SWAP2 SWAP1 PUSH1 0x0 MSTORE PUSH1 0x20 PUSH1 0x0 KECCAK256 SWAP1 JUMPDEST DUP2 SLOAD DUP2 MSTORE SWAP1 PUSH1 0x1 ADD SWAP1 PUSH1 0x20 ADD DUP1 DUP4 GT PUSH2 0xC65 JUMPI DUP3 SWAP1 SUB PUSH1 0x1F AND DUP3 ADD SWAP2 JUMPDEST POP POP POP POP POP DUP2 MSTORE PUSH1 0x20 ADD PUSH1 0x1 DUP3 ADD DUP1 SLOAD PUSH2 0xC9B SWAP1 PUSH2 0x140B JUMP JUMPDEST DUP1 PUSH1 0x1F ADD PUSH1 0x20 DUP1 SWAP2 DIV MUL PUSH1 0x20 ADD PUSH1 0x40 MLOAD SWAP1 DUP2 ADD PUSH1 0x40 MSTORE DUP1 SWAP3 SWAP2 SWAP1 DUP2 DUP2 MSTORE PUSH1 0x20 ADD DUP3 DUP1 SLOAD PUSH2 0xCC7 SWAP1 PUSH2 0x140B JUMP JUMPDEST DUP1 ISZERO PUSH2 0xD14 JUMPI DUP1 PUSH1 0x1F LT PUSH2 0xCE9 JUMPI PUSH2 0x100 DUP1 DUP4 SLOAD DIV MUL DUP4 MSTORE SWAP2 PUSH1 0x20 ADD SWAP2 PUSH2 0xD14 JUMP JUMPDEST DUP3 ADD SWAP2 SWAP1 PUSH1 0x0 MSTORE PUSH1 0x20 PUSH1 0x0 KECCAK256 SWAP1 JUMPDEST DUP2 SLOAD DUP2 MSTORE SWAP1 PUSH1 0x1 ADD SWAP1 PUSH1 0x20 ADD DUP1 DUP4 GT PUSH2 0xCF7 JUMPI DUP3 SWAP1 SUB PUSH1 0x1F AND DUP3 ADD SWAP2 JUMPDEST POP POP POP POP POP DUP2 MSTORE PUSH1 0x20 ADD PUSH1 0x2 DUP3 ADD DUP1 SLOAD PUSH2 0xD2D SWAP1 PUSH2 0x140B JUMP JUMPDEST DUP1 PUSH1 0x1F ADD PUSH1 0x20 DUP1 SWAP2 DIV MUL PUSH1 0x20 ADD PUSH1 0x40 MLOAD SWAP1 DUP2 ADD PUSH1 0x40 MSTORE DUP1 SWAP3 SWAP2 SWAP1 DUP2 DUP2 MSTORE PUSH1 0x20 ADD DUP3 DUP1 SLOAD PUSH2 0xD59 SWAP1 PUSH2 0x140B JUMP JUMPDEST DUP1 ISZERO PUSH2 0xDA6 JUMPI DUP1 PUSH1 0x1F LT PUSH2 0xD7B JUMPI PUSH2 0x100 DUP1 DUP4 SLOAD DIV MUL DUP4 MSTORE SWAP2 PUSH1 0x20 ADD SWAP2 PUSH2 0xDA6 JUMP JUMPDEST DUP3 ADD SWAP2 SWAP1 PUSH1 0x0 MSTORE PUSH1 0x20 PUSH1 0x0 KECCAK256 SWAP1 JUMPDEST DUP2 SLOAD DUP2 MSTORE SWAP1 PUSH1 0x1 ADD SWAP1 PUSH1 0x20 ADD DUP1 DUP4 GT PUSH2 0xD89 JUMPI DUP3 SWAP1 SUB PUSH1 0x1F AND DUP3 ADD SWAP2 JUMPDEST POP POP POP SWAP2 DUP4 MSTORE POP POP PUSH1 0x3 DUP3 ADD SLOAD PUSH1 0x1 PUSH1 0x1 PUSH1 0xA0 SHL SUB SWAP1 DUP2 AND PUSH1 0x20 DUP4 ADD MSTORE PUSH1 0x4 DUP4 ADD SLOAD AND PUSH1 0x40 DUP3 ADD MSTORE PUSH1 0x5 DUP3 ADD SLOAD PUSH1 0x60 DUP3 ADD MSTORE PUSH1 0x6 DUP3 ADD SLOAD PUSH1 0xFF AND ISZERO ISZERO PUSH1 0x80 DUP3 ADD MSTORE PUSH1 0x7 DUP3 ADD DUP1 SLOAD PUSH1 0xA0 SWAP1 SWAP3 ADD SWAP2 PUSH2 0xDFC SWAP1 PUSH2 0x140B JUMP JUMPDEST DUP1 PUSH1 0x1F ADD PUSH1 0x20 DUP1 SWAP2 DIV MUL PUSH1 0x20 ADD PUSH1 0x40 MLOAD SWAP1 DUP2 ADD PUSH1 0x40 MSTORE DUP1 SWAP3 SWAP2 SWAP1 DUP2 DUP2 MSTORE PUSH1 0x20 ADD DUP3 DUP1 SLOAD PUSH2 0xE28 SWAP1 PUSH2 0x140B JUMP JUMPDEST DUP1 ISZERO PUSH2 0xE75 JUMPI DUP1 PUSH1 0x1F LT PUSH2 0xE4A JUMPI PUSH2 0x100 DUP1 DUP4 SLOAD DIV MUL DUP4 MSTORE SWAP2 PUSH1 0x20 ADD SWAP2 PUSH2 0xE75 JUMP JUMPDEST DUP3 ADD SWAP2 SWAP1 PUSH1 0x0 MSTORE PUSH1 0x20 PUSH1 0x0 KECCAK256 SWAP1 JUMPDEST DUP2 SLOAD DUP2 MSTORE SWAP1 PUSH1 0x1 ADD SWAP1 PUSH1 0x20 ADD DUP1 DUP4 GT PUSH2 0xE58 JUMPI DUP3 SWAP1 SUB PUSH1 0x1F AND DUP3 ADD SWAP2 JUMPDEST POP POP POP POP POP DUP2 MSTORE POP POP SWAP2 POP JUMPDEST POP SWAP2 SWAP1 POP JUMP JUMPDEST PUSH2 0xE8F PUSH2 0xF27 JUMP JUMPDEST PUSH1 0x1 PUSH1 0x1 PUSH1 0xA0 SHL SUB DUP2 AND PUSH2 0xEB9 JUMPI PUSH1 0x40 MLOAD PUSH4 0x1E4FBDF7 PUSH1 0xE0 SHL DUP2 MSTORE PUSH1 0x0 PUSH1 0x4 DUP3 ADD MSTORE PUSH1 0x24 ADD PUSH2 0x22E JUMP JUMPDEST PUSH2 0xEC2 DUP2 PUSH2 0xF54 JUMP JUMPDEST POP JUMP JUMPDEST PUSH1 0x0 DUP1 PUSH1 0x5 DUP4 PUSH1 0x40 MLOAD PUSH2 0xED8 SWAP2 SWAP1 PUSH2 0x13AC JUMP JUMPDEST SWAP1 DUP2 MSTORE PUSH1 0x40 MLOAD SWAP1 DUP2 SWAP1 SUB PUSH1 0x20 ADD SWAP1 KECCAK256 SLOAD PUSH1 0xFF AND SWAP2 POP DUP2 PUSH2 0xEF9 JUMPI PUSH1 0x0 PUSH2 0xF20 JUMP JUMPDEST PUSH1 0x2 DUP4 PUSH1 0x40 MLOAD PUSH2 0xF09 SWAP2 SWAP1 PUSH2 0x13AC JUMP JUMPDEST SWAP1 DUP2 MSTORE PUSH1 0x40 MLOAD SWAP1 DUP2 SWAP1 SUB PUSH1 0x20 ADD SWAP1 KECCAK256 PUSH1 0x6 ADD SLOAD PUSH1 0xFF AND JUMPDEST SWAP1 POP SWAP2 POP SWAP2 JUMP JUMPDEST PUSH1 0x0 SLOAD PUSH1 0x1 PUSH1 0x1 PUSH1 0xA0 SHL SUB AND CALLER EQ PUSH2 0x5B4 JUMPI PUSH1 0x40 MLOAD PUSH4 0x118CDAA7 PUSH1 0xE0 SHL DUP2 MSTORE CALLER PUSH1 0x4 DUP3 ADD MSTORE PUSH1 0x24 ADD PUSH2 0x22E JUMP JUMPDEST PUSH1 0x0 DUP1 SLOAD PUSH1 0x1 PUSH1 0x1 PUSH1 0xA0 SHL SUB DUP4 DUP2 AND PUSH1 0x1 PUSH1 0x1 PUSH1 0xA0 SHL SUB NOT DUP4 AND DUP2 OR DUP5 SSTORE PUSH1 0x40 MLOAD SWAP2 SWAP1 SWAP3 AND SWAP3 DUP4 SWAP2 PUSH32 0x8BE0079C531659141344CD1FD0A4F28419497F9722A3DAAFE3B4186F6B6457E0 SWAP2 SWAP1 LOG3 POP POP JUMP JUMPDEST PUSH1 0x2 PUSH1 0x1 SLOAD SUB PUSH2 0xFC7 JUMPI PUSH1 0x40 MLOAD PUSH4 0x3EE5AEB5 PUSH1 0xE0 SHL DUP2 MSTORE PUSH1 0x4 ADD PUSH1 0x40 MLOAD DUP1 SWAP2 SUB SWAP1 REVERT JUMPDEST PUSH1 0x2 PUSH1 0x1 SSTORE JUMP JUMPDEST PUSH4 0x4E487B71 PUSH1 0xE0 SHL PUSH1 0x0 MSTORE PUSH1 0x41 PUSH1 0x4 MSTORE PUSH1 0x24 PUSH1 0x0 REVERT JUMPDEST PUSH1 0x0 DUP3 PUSH1 0x1F DUP4 ADD SLT PUSH2 0xFF5 JUMPI PUSH1 0x0 DUP1 REVERT JUMPDEST DUP2 CALLDATALOAD PUSH8 0xFFFFFFFFFFFFFFFF DUP1 DUP3 GT ISZERO PUSH2 0x1010 JUMPI PUSH2 0x1010 PUSH2 0xFCE JUMP JUMPDEST PUSH1 0x40 MLOAD PUSH1 0x1F DUP4 ADD PUSH1 0x1F NOT SWAP1 DUP2 AND PUSH1 0x3F ADD AND DUP2 ADD SWAP1 DUP3 DUP3 GT DUP2 DUP4 LT OR ISZERO PUSH2 0x1038 JUMPI PUSH2 0x1038 PUSH2 0xFCE JUMP JUMPDEST DUP2 PUSH1 0x40 MSTORE DUP4 DUP2 MSTORE DUP7 PUSH1 0x20 DUP6 DUP9 ADD ADD GT ISZERO PUSH2 0x1051 JUMPI PUSH1 0x0 DUP1 REVERT JUMPDEST DUP4 PUSH1 0x20 DUP8 ADD PUSH1 0x20 DUP4 ADD CALLDATACOPY PUSH1 0x0 PUSH1 0x20 DUP6 DUP4 ADD ADD MSTORE DUP1 SWAP5 POP POP POP POP POP SWAP3 SWAP2 POP POP JUMP JUMPDEST PUSH1 0x0 PUSH1 0x20 DUP3 DUP5 SUB SLT ISZERO PUSH2 0x1083 JUMPI PUSH1 0x0 DUP1 REVERT JUMPDEST DUP2 CALLDATALOAD PUSH8 0xFFFFFFFFFFFFFFFF DUP2 GT ISZERO PUSH2 0x109A JUMPI PUSH1 0x0 DUP1 REVERT JUMPDEST PUSH2 0x10A6 DUP5 DUP3 DUP6 ADD PUSH2 0xFE4 JUMP JUMPDEST SWAP5 SWAP4 POP POP POP POP JUMP JUMPDEST DUP1 CALLDATALOAD PUSH1 0x1 PUSH1 0x1 PUSH1 0xA0 SHL SUB DUP2 AND DUP2 EQ PUSH2 0x10C5 JUMPI PUSH1 0x0 DUP1 REVERT JUMPDEST SWAP2 SWAP1 POP JUMP JUMPDEST PUSH1 0x0 PUSH1 0x20 DUP3 DUP5 SUB SLT ISZERO PUSH2 0x10DC JUMPI PUSH1 0x0 DUP1 REVERT JUMPDEST PUSH2 0x10E5 DUP3 PUSH2 0x10AE JUMP JUMPDEST SWAP4 SWAP3 POP POP POP JUMP JUMPDEST PUSH1 0x0 DUP1 PUSH1 0x0 DUP1 PUSH1 0x0 PUSH1 0xA0 DUP7 DUP9 SUB SLT ISZERO PUSH2 0x1104 JUMPI PUSH1 0x0 DUP1 REVERT JUMPDEST DUP6 CALLDATALOAD PUSH8 0xFFFFFFFFFFFFFFFF DUP1 DUP3 GT ISZERO PUSH2 0x111C JUMPI PUSH1 0x0 DUP1 REVERT JUMPDEST PUSH2 0x1128 DUP10 DUP4 DUP11 ADD PUSH2 0xFE4 JUMP JUMPDEST SWAP7 POP PUSH1 0x20 DUP9 ADD CALLDATALOAD SWAP2 POP DUP1 DUP3 GT ISZERO PUSH2 0x113E JUMPI PUSH1 0x0 DUP1 REVERT JUMPDEST PUSH2 0x114A DUP10 DUP4 DUP11 ADD PUSH2 0xFE4 JUMP JUMPDEST SWAP6 POP PUSH1 0x40 DUP9 ADD CALLDATALOAD SWAP2 POP DUP1 DUP3 GT ISZERO PUSH2 0x1160 JUMPI PUSH1 0x0 DUP1 REVERT JUMPDEST PUSH2 0x116C DUP10 DUP4 DUP11 ADD PUSH2 0xFE4 JUMP JUMPDEST SWAP5 POP PUSH2 0x117A PUSH1 0x60 DUP10 ADD PUSH2 0x10AE JUMP JUMPDEST SWAP4 POP PUSH1 0x80 DUP9 ADD CALLDATALOAD SWAP2 POP DUP1 DUP3 GT ISZERO PUSH2 0x1190 JUMPI PUSH1 0x0 DUP1 REVERT JUMPDEST POP PUSH2 0x119D DUP9 DUP3 DUP10 ADD PUSH2 0xFE4 JUMP JUMPDEST SWAP2 POP POP SWAP3 SWAP6 POP SWAP3 SWAP6 SWAP1 SWAP4 POP JUMP JUMPDEST PUSH1 0x0 DUP1 PUSH1 0x40 DUP4 DUP6 SUB SLT ISZERO PUSH2 0x11BD JUMPI PUSH1 0x0 DUP1 REVERT JUMPDEST PUSH2 0x11C6 DUP4 PUSH2 0x10AE JUMP JUMPDEST SWAP5 PUSH1 0x20 SWAP4 SWAP1 SWAP4 ADD CALLDATALOAD SWAP4 POP POP POP JUMP JUMPDEST PUSH1 0x0 JUMPDEST DUP4 DUP2 LT ISZERO PUSH2 0x11EF JUMPI DUP2 DUP2 ADD MLOAD DUP4 DUP3 ADD MSTORE PUSH1 0x20 ADD PUSH2 0x11D7 JUMP JUMPDEST POP POP PUSH1 0x0 SWAP2 ADD MSTORE JUMP JUMPDEST PUSH1 0x0 DUP2 MLOAD DUP1 DUP5 MSTORE PUSH2 0x1210 DUP2 PUSH1 0x20 DUP7 ADD PUSH1 0x20 DUP7 ADD PUSH2 0x11D4 JUMP JUMPDEST PUSH1 0x1F ADD PUSH1 0x1F NOT AND SWAP3 SWAP1 SWAP3 ADD PUSH1 0x20 ADD SWAP3 SWAP2 POP POP JUMP JUMPDEST PUSH1 0x20 DUP2 MSTORE PUSH1 0x0 PUSH2 0x10E5 PUSH1 0x20 DUP4 ADD DUP5 PUSH2 0x11F8 JUMP JUMPDEST PUSH1 0x0 PUSH1 0x20 DUP1 DUP4 ADD DUP2 DUP5 MSTORE DUP1 DUP6 MLOAD DUP1 DUP4 MSTORE PUSH1 0x40 DUP7 ADD SWAP2 POP PUSH1 0x40 DUP2 PUSH1 0x5 SHL DUP8 ADD ADD SWAP3 POP DUP4 DUP8 ADD PUSH1 0x0 JUMPDEST DUP3 DUP2 LT ISZERO PUSH2 0x128C JUMPI PUSH1 0x3F NOT DUP9 DUP7 SUB ADD DUP5 MSTORE PUSH2 0x127A DUP6 DUP4 MLOAD PUSH2 0x11F8 JUMP JUMPDEST SWAP5 POP SWAP3 DUP6 ADD SWAP3 SWAP1 DUP6 ADD SWAP1 PUSH1 0x1 ADD PUSH2 0x125E JUMP JUMPDEST POP SWAP3 SWAP8 SWAP7 POP POP POP POP POP POP POP JUMP JUMPDEST PUSH1 0x20 DUP2 MSTORE PUSH1 0x0 DUP3 MLOAD PUSH2 0x100 DUP1 PUSH1 0x20 DUP6 ADD MSTORE PUSH2 0x12B8 PUSH2 0x120 DUP6 ADD DUP4 PUSH2 0x11F8 JUMP JUMPDEST SWAP2 POP PUSH1 0x20 DUP6 ADD MLOAD PUSH1 0x1F NOT DUP1 DUP7 DUP6 SUB ADD PUSH1 0x40 DUP8 ADD MSTORE PUSH2 0x12D6 DUP5 DUP4 PUSH2 0x11F8 JUMP JUMPDEST SWAP4 POP PUSH1 0x40 DUP8 ADD MLOAD SWAP2 POP DUP1 DUP7 DUP6 SUB ADD PUSH1 0x60 DUP8 ADD MSTORE PUSH2 0x12F3 DUP5 DUP4 PUSH2 0x11F8 JUMP JUMPDEST SWAP4 POP PUSH1 0x60 DUP8 ADD MLOAD SWAP2 POP PUSH2 0x1311 PUSH1 0x80 DUP8 ADD DUP4 PUSH1 0x1 PUSH1 0x1 PUSH1 0xA0 SHL SUB AND SWAP1 MSTORE JUMP JUMPDEST PUSH1 0x80 DUP8 ADD MLOAD PUSH1 0x1 PUSH1 0x1 PUSH1 0xA0 SHL SUB DUP2 AND PUSH1 0xA0 DUP9 ADD MSTORE SWAP2 POP PUSH1 0xA0 DUP8 ADD MLOAD PUSH1 0xC0 DUP8 ADD MSTORE PUSH1 0xC0 DUP8 ADD MLOAD SWAP2 POP PUSH2 0x1346 PUSH1 0xE0 DUP8 ADD DUP4 ISZERO ISZERO SWAP1 MSTORE JUMP JUMPDEST PUSH1 0xE0 DUP8 ADD MLOAD SWAP2 POP DUP1 DUP7 DUP6 SUB ADD DUP4 DUP8 ADD MSTORE POP PUSH2 0x1361 DUP4 DUP3 PUSH2 0x11F8 JUMP JUMPDEST SWAP7 SWAP6 POP POP POP POP POP POP JUMP JUMPDEST PUSH1 0x20 DUP1 DUP3 MSTORE PUSH1 0x21 SWAP1 DUP3 ADD MSTORE PUSH32 0x436572745265673A204E6F7420616E20617574686F72697A6564206973737565 PUSH1 0x40 DUP3 ADD MSTORE PUSH1 0x39 PUSH1 0xF9 SHL PUSH1 0x60 DUP3 ADD MSTORE PUSH1 0x80 ADD SWAP1 JUMP JUMPDEST PUSH1 0x0 DUP3 MLOAD PUSH2 0x13BE DUP2 DUP5 PUSH1 0x20 DUP8 ADD PUSH2 0x11D4 JUMP JUMPDEST SWAP2 SWAP1 SWAP2 ADD SWAP3 SWAP2 POP POP JUMP JUMPDEST PUSH1 0x20 DUP1 DUP3 MSTORE PUSH1 0x23 SWAP1 DUP3 ADD MSTORE PUSH32 0x436572745265673A20436572746966696361746520646F6573206E6F74206578 PUSH1 0x40 DUP3 ADD MSTORE PUSH3 0x1A5CDD PUSH1 0xEA SHL PUSH1 0x60 DUP3 ADD MSTORE PUSH1 0x80 ADD SWAP1 JUMP JUMPDEST PUSH1 0x1 DUP2 DUP2 SHR SWAP1 DUP3 AND DUP1 PUSH2 0x141F JUMPI PUSH1 0x7F DUP3 AND SWAP2 POP JUMPDEST PUSH1 0x20 DUP3 LT DUP2 SUB PUSH2 0xE81 JUMPI PUSH4 0x4E487B71 PUSH1 0xE0 SHL PUSH1 0x0 MSTORE PUSH1 0x22 PUSH1 0x4 MSTORE PUSH1 0x24 PUSH1 0x0 REVERT JUMPDEST PUSH1 0x1F DUP3 GT ISZERO PUSH2 0x1489 JUMPI PUSH1 0x0 DUP2 DUP2 MSTORE PUSH1 0x20 DUP2 KECCAK256 PUSH1 0x1F DUP6 ADD PUSH1 0x5 SHR DUP2 ADD PUSH1 0x20 DUP7 LT ISZERO PUSH2 0x1466 JUMPI POP DUP1 JUMPDEST PUSH1 0x1F DUP6 ADD PUSH1 0x5 SHR DUP3 ADD SWAP2 POP JUMPDEST DUP2 DUP2 LT ISZERO PUSH2 0x1485 JUMPI DUP3 DUP2 SSTORE PUSH1 0x1 ADD PUSH2 0x1472 JUMP JUMPDEST POP POP POP JUMPDEST POP POP POP JUMP JUMPDEST DUP2 MLOAD PUSH8 0xFFFFFFFFFFFFFFFF DUP2 GT ISZERO PUSH2 0x14A8 JUMPI PUSH2 0x14A8 PUSH2 0xFCE JUMP JUMPDEST PUSH2 0x14BC DUP2 PUSH2 0x14B6 DUP5 SLOAD PUSH2 0x140B JUMP JUMPDEST DUP5 PUSH2 0x143F JUMP JUMPDEST PUSH1 0x20 DUP1 PUSH1 0x1F DUP4 GT PUSH1 0x1 DUP2 EQ PUSH2 0x14F1 JUMPI PUSH1 0x0 DUP5 ISZERO PUSH2 0x14D9 JUMPI POP DUP6 DUP4 ADD MLOAD JUMPDEST PUSH1 0x0 NOT PUSH1 0x3 DUP7 SWAP1 SHL SHR NOT AND PUSH1 0x1 DUP6 SWAP1 SHL OR DUP6 SSTORE PUSH2 0x1485 JUMP JUMPDEST PUSH1 0x0 DUP6 DUP2 MSTORE PUSH1 0x20 DUP2 KECCAK256 PUSH1 0x1F NOT DUP7 AND SWAP2 JUMPDEST DUP3 DUP2 LT ISZERO PUSH2 0x1520 JUMPI DUP9 DUP7 ADD MLOAD DUP3 SSTORE SWAP5 DUP5 ADD SWAP5 PUSH1 0x1 SWAP1 SWAP2 ADD SWAP1 DUP5 ADD PUSH2 0x1501 JUMP JUMPDEST POP DUP6 DUP3 LT ISZERO PUSH2 0x153E JUMPI DUP8 DUP6 ADD MLOAD PUSH1 0x0 NOT PUSH1 0x3 DUP9 SWAP1 SHL PUSH1 0xF8 AND SHR NOT AND DUP2 SSTORE JUMPDEST POP POP POP POP POP PUSH1 0x1 SWAP1 DUP2 SHL ADD SWAP1 SSTORE POP JUMP INVALID LOG2 PUSH5 0x6970667358 0x22 SLT KECCAK256 DUP14 0x25 DUP9 PUSH18 0xAE845FBEBB8C38C31F03039D265CF5CDF4B4 PUSH24 0x25E8212F71515DD3B964736F6C6343000814003300000000 "},"methodIdentifiers":{"addIssuer(address)":"20694db0","authorizedIssuers(address)":"f731fa0f","checkCertificate(string)":"ffbd4dd5","getCertificate(string)":"ed0f2e75","getStudentCertificates(address)":"ebc63bc0","issueCertificate(string,string,string,address,string)":"7614b5ed","owner()":"8da5cb5b","removeIssuer(address)":"47bc7093","renounceOwnership()":"715018a6","revokeCertificate(string)":"142e1542","studentCertificates(address,uint256)":"c3934f0e","transferOwnership(address)":"f2fde38b"}}}}}