{
  "_format": "hh-sol-artifact-1",
  "contractName": "CertificateRegistry",
  "sourceName": "contracts/CertificateRegistry.sol",
  "abi": [
    {
      "inputs": [],
      "stateMutability": "nonpayable",
      "type": "constructor"
    },
    {
      "inputs": [
        {
          "internalType": "address",
          "name": "owner",
          "type": "address"
        }
      ],
      "name": "OwnableInvalidOwner",
      "type": "error"
    },
    {
      "inputs": [
        {
          "internalType": "address",
          "name": "account",
          "type": "address"
        }
      ],
      "name": "OwnableUnauthorizedAccount",
      "type": "error"
    },
    {
      "inputs": [],
      "name": "ReentrancyGuardReentrantCall",
      "type": "error"
    },
    {
      "anonymous": false,
      "inputs": [
        {
          "indexed": true,
          "internalType": "string",
          "name": "certId",
          "type": "string"
        },
        {
          "indexed": true,
          "internalType": "address",
          "name": "issuer",
          "type": "address"
        },
        {
          "indexed": true,
          "internalType": "address",
          "name": "student",
          "type": "address"
        },
        {
          "indexed": false,
          "internalType": "uint256",
          "name": "timestamp",
          "type": "uint256"
        }
      ],
      "name": "CertificateIssued",
      "type": "event"
    },
    {
      "anonymous": false,
      "inputs": [
        {
          "indexed": true,
          "internalType": "string",
          "name": "certId",
          "type": "string"
        },
        {
          "indexed": true,
          "internalType": "address",
          "name": "revokedBy",
          "type": "address"
        }
      ],
      "name": "CertificateRevoked",
      "type": "event"
    },
    {
      "anonymous": false,
      "inputs": [
        {
          "indexed": true,
          "internalType": "address",
          "name": "issuer",
          "type": "address"
        }
      ],
      "name": "IssuerAdded",
      "type": "event"
    },
    {
      "anonymous": false,
      "inputs": [
        {
          "indexed": true,
          "internalType": "address",
          "name": "issuer",
          "type": "address"
        }
      ],
      "name": "IssuerRemoved",
      "type": "event"
    },
    {
      "anonymous": false,
      "inputs": [
        {
          "indexed": true,
          "internalType": "address",
          "name": "previousOwner",
          "type": "address"
        },
        {
          "indexed": true,
          "internalType": "address",
          "name": "newOwner",
          "type": "address"
        }
      ],
      "name": "OwnershipTransferred",
      "type": "event"
    },
    {
      "inputs": [
        {
          "internalType": "address",
          "name": "_issuer",
          "type": "address"
        }
      ],
      "name": "addIssuer",
      "outputs": [],
      "stateMutability": "nonpayable",
      "type": "function"
    },
    {
      "inputs": [
        {
          "internalType": "address",
          "name": "",
          "type": "address"
        }
      ],
      "name": "authorizedIssuers",
      "outputs": [
        {
          "internalType": "bool",
          "name": "",
          "type": "bool"
        }
      ],
      "stateMutability": "view",
      "type": "function"
    },
    {
      "inputs": [
        {
          "internalType": "string",
          "name": "_certId",
          "type": "string"
        }
      ],
      "name": "checkCertificate",
      "outputs": [
        {
          "internalType": "bool",
          "name": "exists",
          "type": "bool"
        },
        {
          "internalType": "bool",
          "name": "revoked",
          "type": "bool"
        }
      ],
      "stateMutability": "view",
      "type": "function"
    },
    {
      "inputs": [
        {
          "internalType": "string",
          "name": "_certId",
          "type": "string"
        }
      ],
      "name": "getCertificate",
      "outputs": [
        {
          "components": [
            {
              "internalType": "string",
              "name": "certId",
              "type": "string"
            },
            {
              "internalType": "string",
              "name": "hash",
              "type": "string"
            },
            {
              "internalType": "string",
              "name": "cid",
              "type": "string"
            },
            {
              "internalType": "address",
              "name": "issuer",
              "type": "address"
            },
            {
              "internalType": "address",
              "name": "student",
              "type": "address"
            },
            {
              "internalType": "uint256",
              "name": "timestamp",
              "type": "uint256"
            },
            {
              "internalType": "bool",
              "name": "revoked",
              "type": "bool"
            },
            {
              "internalType": "string",
              "name": "metadata",
              "type": "string"
            }
          ],
          "internalType": "struct CertificateRegistry.Certificate",
          "name": "",
          "type": "tuple"
        }
      ],
      "stateMutability": "view",
      "type": "function"
    },
    {
      "inputs": [
        {
          "internalType": "address",
          "name": "_student",
          "type": "address"
        }
      ],
      "name": "getStudentCertificates",
      "outputs": [
        {
          "internalType": "string[]",
          "name": "",
          "type": "string[]"
        }
      ],
      "stateMutability": "view",
      "type": "function"
    },
    {
      "inputs": [
        {
          "internalType": "string",
          "name": "_certId",
          "type": "string"
        },
        {
          "internalType": "string",
          "name": "_hash",
          "type": "string"
        },
        {
          "internalType": "string",
          "name": "_cid",
          "type": "string"
        },
        {
          "internalType": "address",
          "name": "_student",
          "type": "address"
        },
        {
          "internalType": "string",
          "name": "_metadata",
          "type": "string"
        }
      ],
      "name": "issueCertificate",
      "outputs": [],
      "stateMutability": "nonpayable",
      "type": "function"
    },
    {
      "inputs": [],
      "name": "owner",
      "outputs": [
        {
          "internalType": "address",
          "name": "",
          "type": "address"
        }
      ],
      "stateMutability": "view",
      "type": "function"
    },
    {
      "inputs": [
        {
          "internalType": "address",
          "name": "_issuer",
          "type": "address"
        }
      ],
      "name": "removeIssuer",
      "outputs": [],
      "stateMutability": "nonpayable",
      "type": "function"
    },
    {
      "inputs": [],
      "name": "renounceOwnership",
      "outputs": [],
      "stateMutability": "nonpayable",
      "type": "function"
    },
    {
      "inputs": [
        {
          "internalType": "string",
          "name": "_certId",
          "type": "string"
        }
      ],
      "name": "revokeCertificate",
      "outputs": [],
      "stateMutability": "nonpayable",
      "type": "function"
    },
    {
      "inputs": [
        {
          "internalType": "address",
          "name": "",
          "type": "address"
        },
        {
          "internalType": "uint256",
          "name": "",
          "type": "uint256"
        }
      ],
      "name": "studentCertificates",
      "outputs": [
        {
          "internalType": "string",
          "name": "",
          "type": "string"
        }
      ],
      "stateMutability": "view",
      "type": "function"
    },
    {
      "inputs": [
        {
          "internalType": "address",
          "name": "newOwner",
          "type": "address"
        }
      ],
      "name": "transferOwnership",
      "outputs": [],
      "stateMutability": "nonpayable",
      "type": "function"
    }
  ],
  "bytecode": "0x608060405234801561001057600080fd5b50338061003757604051631e4fbdf760e01b81526000600482015260240160405180910390fd5b6100408161004a565b506001805561009a565b600080546001600160a01b038381166001600160a01b0319831681178455604051919092169283917f8be0079c531659141344cd1fd0a4f28419497f9722a3daafe3b4186f6b6457e09190a35050565b611584806100a96000396000f3fe608060405234801561001057600080fd5b50600436106100b45760003560e01c8063c3934f0e11610071578063c3934f0e1461012f578063ebc63bc01461014f578063ed0f2e751461016f578063f2fde38b1461018f578063f731fa0f146101a2578063ffbd4dd5146101d557600080fd5b8063142e1542146100b957806320694db0146100ce57806347bc7093146100e1578063715018a6146100f45780637614b5ed146100fc5780638da5cb5b1461010f575b600080fd5b6100cc6100c7366004611071565b6101ff565b005b6100cc6100dc3660046110ca565b6103de565b6100cc6100ef3660046110ca565b6104e9565b6100cc6105a2565b6100cc61010a3660046110ec565b6105b6565b6000546040516001600160a01b0390911681526020015b60405180910390f35b61014261013d3660046111aa565b61098b565b6040516101269190611224565b61016261015d3660046110ca565b610a44565b6040516101269190611237565b61018261017d366004611071565b610b33565b6040516101269190611299565b6100cc61019d3660046110ca565b610e87565b6101c56101b03660046110ca565b60036020526000908152604090205460ff1681565b6040519015158152602001610126565b6101e86101e3366004611071565b610ec5565b604080519215158352901515602083015201610126565b3360009081526003602052604090205460ff166102375760405162461bcd60e51b815260040161022e9061136b565b60405180910390fd5b8060058160405161024891906113ac565b9081526040519081900360200190205460ff166102775760405162461bcd60e51b815260040161022e906113c8565b600060028360405161028991906113ac565b908152604051908190036020019020600681015490915060ff16156102f05760405162461bcd60e51b815260206004820152601860248201527f436572745265673a20416c7265616479207265766f6b65640000000000000000604482015260640161022e565b60038101546001600160a01b03163314806103245750336103196000546001600160a01b031690565b6001600160a01b0316145b61038a5760405162461bcd60e51b815260206004820152603160248201527f436572745265673a204f6e6c79206f726967696e616c20697373756572206f72604482015270206f776e65722063616e207265766f6b6560781b606482015260840161022e565b60068101805460ff1916600117905560405133906103a99085906113ac565b604051908190038120907f7b87df98e4ff33f07a9fbda6f93a6b69c498e48444877da8c54a83d3a43aee5b90600090a3505050565b6103e6610f27565b6001600160a01b0381166104345760405162461bcd60e51b8152602060048201526015602482015274436572745265673a205a65726f206164647265737360581b604482015260640161022e565b6001600160a01b03811660009081526003602052604090205460ff161561049d5760405162461bcd60e51b815260206004820152601b60248201527f436572745265673a20416c726561647920617574686f72697a65640000000000604482015260640161022e565b6001600160a01b038116600081815260036020526040808220805460ff19166001179055517f05e7c881d716bee8cb7ed92293133ba156704252439e5c502c277448f04e20c29190a250565b6104f1610f27565b6001600160a01b03811660009081526003602052604090205460ff166105595760405162461bcd60e51b815260206004820152601760248201527f436572745265673a204e6f7420617574686f72697a6564000000000000000000604482015260640161022e565b6001600160a01b038116600081815260036020526040808220805460ff19169055517faf66545c919a3be306ee446d8f42a9558b5b022620df880517bc9593ec0f2d529190a250565b6105aa610f27565b6105b46000610f54565b565b3360009081526003602052604090205460ff166105e55760405162461bcd60e51b815260040161022e9061136b565b6105ed610fa4565b60008551116106365760405162461bcd60e51b815260206004820152601560248201527410d95c9d149959ce88115b5c1d1e4818d95c9d1259605a1b604482015260640161022e565b83516040146106935760405162461bcd60e51b8152602060048201526024808201527f436572745265673a20496e76616c6964205348412d3235362068617368206c656044820152630dccee8d60e31b606482015260840161022e565b60008351116106d95760405162461bcd60e51b815260206004820152601260248201527110d95c9d149959ce88115b5c1d1e4810d25160721b604482015260640161022e565b6001600160a01b03821661072f5760405162461bcd60e51b815260206004820152601d60248201527f436572745265673a205a65726f2073747564656e742061646472657373000000604482015260640161022e565b60058560405161073f91906113ac565b9081526040519081900360200190205460ff16156107ab5760405162461bcd60e51b815260206004820152602360248201527f436572745265673a20436572746966696361746520616c72656164792065786960448201526273747360e81b606482015260840161022e565b6040805161010081018252868152602081018690528082018590523360608201526001600160a01b03841660808201524260a0820152600060c082015260e0810183905290516002906107ff9088906113ac565b9081526040519081900360200190208151819061081c908261148e565b5060208201516001820190610831908261148e565b5060408201516002820190610846908261148e565b5060608201516003820180546001600160a01b039283166001600160a01b031991821617909155608084015160048401805491909316911617905560a0820151600582015560c082015160068201805491151560ff1990921691909117905560e082015160078201906108b9908261148e565b5090505060016005866040516108cf91906113ac565b9081526040805160209281900383019020805460ff1916931515939093179092556001600160a01b038416600090815260048252918220805460018101825590835291200161091e868261148e565b50816001600160a01b0316336001600160a01b03168660405161094191906113ac565b604051908190038120428252907f9fe1c2a652f45331b1ebb6bf6344782dd1ea80b8c8aec7e0d362d0e43f5391559060200160405180910390a461098460018055565b5050505050565b600460205281600052604060002081815481106109a757600080fd5b906000526020600020016000915091505080546109c39061140b565b80601f01602080910402602001604051908101604052809291908181526020018280546109ef9061140b565b8015610a3c5780601f10610a1157610100808354040283529160200191610a3c565b820191906000526020600020905b815481529060010190602001808311610a1f57829003601f168201915b505050505081565b6001600160a01b0381166000908152600460209081526040808320805482518185028101850190935280835260609492939192909184015b82821015610b28578382906000526020600020018054610a9b9061140b565b80601f0160208091040260200160405190810160405280929190818152602001828054610ac79061140b565b8015610b145780601f10610ae957610100808354040283529160200191610b14565b820191906000526020600020905b815481529060010190602001808311610af757829003601f168201915b505050505081526020019060010190610a7c565b505050509050919050565b610b8f60405180610100016040528060608152602001606081526020016060815260200160006001600160a01b0316815260200160006001600160a01b0316815260200160008152602001600015158152602001606081525090565b81600581604051610ba091906113ac565b9081526040519081900360200190205460ff16610bcf5760405162461bcd60e51b815260040161022e906113c8565b600283604051610bdf91906113ac565b908152602001604051809103902060405180610100016040529081600082018054610c099061140b565b80601f0160208091040260200160405190810160405280929190818152602001828054610c359061140b565b8015610c825780601f10610c5757610100808354040283529160200191610c82565b820191906000526020600020905b815481529060010190602001808311610c6557829003601f168201915b50505050508152602001600182018054610c9b9061140b565b80601f0160208091040260200160405190810160405280929190818152602001828054610cc79061140b565b8015610d145780601f10610ce957610100808354040283529160200191610d14565b820191906000526020600020905b815481529060010190602001808311610cf757829003601f168201915b50505050508152602001600282018054610d2d9061140b565b80601f0160208091040260200160405190810160405280929190818152602001828054610d599061140b565b8015610da65780601f10610d7b57610100808354040283529160200191610da6565b820191906000526020600020905b815481529060010190602001808311610d8957829003601f168201915b505050918352505060038201546001600160a01b039081166020830152600483015416604082015260058201546060820152600682015460ff161515608082015260078201805460a090920191610dfc9061140b565b80601f0160208091040260200160405190810160405280929190818152602001828054610e289061140b565b8015610e755780601f10610e4a57610100808354040283529160200191610e75565b820191906000526020600020905b815481529060010190602001808311610e5857829003601f168201915b50505050508152505091505b50919050565b610e8f610f27565b6001600160a01b038116610eb957604051631e4fbdf760e01b81526000600482015260240161022e565b610ec281610f54565b50565b600080600583604051610ed891906113ac565b9081526040519081900360200190205460ff16915081610ef9576000610f20565b600283604051610f0991906113ac565b9081526040519081900360200190206006015460ff165b9050915091565b6000546001600160a01b031633146105b45760405163118cdaa760e01b815233600482015260240161022e565b600080546001600160a01b038381166001600160a01b0319831681178455604051919092169283917f8be0079c531659141344cd1fd0a4f28419497f9722a3daafe3b4186f6b6457e09190a35050565b600260015403610fc757604051633ee5aeb560e01b815260040160405180910390fd5b6002600155565b634e487b7160e01b600052604160045260246000fd5b600082601f830112610ff557600080fd5b813567ffffffffffffffff8082111561101057611010610fce565b604051601f8301601f19908116603f0116810190828211818310171561103857611038610fce565b8160405283815286602085880101111561105157600080fd5b836020870160208301376000602085830101528094505050505092915050565b60006020828403121561108357600080fd5b813567ffffffffffffffff81111561109a57600080fd5b6110a684828501610fe4565b949350505050565b80356001600160a01b03811681146110c557600080fd5b919050565b6000602082840312156110dc57600080fd5b6110e5826110ae565b9392505050565b600080600080600060a0868803121561110457600080fd5b853567ffffffffffffffff8082111561111c57600080fd5b61112889838a01610fe4565b9650602088013591508082111561113e57600080fd5b61114a89838a01610fe4565b9550604088013591508082111561116057600080fd5b61116c89838a01610fe4565b945061117a606089016110ae565b9350608088013591508082111561119057600080fd5b5061119d88828901610fe4565b9150509295509295909350565b600080604083850312156111bd57600080fd5b6111c6836110ae565b946020939093013593505050565b60005b838110156111ef5781810151838201526020016111d7565b50506000910152565b600081518084526112108160208601602086016111d4565b601f01601f19169290920160200192915050565b6020815260006110e560208301846111f8565b6000602080830181845280855180835260408601915060408160051b870101925083870160005b8281101561128c57603f1988860301845261127a8583516111f8565b9450928501929085019060010161125e565b5092979650505050505050565b60208152600082516101008060208501526112b86101208501836111f8565b91506020850151601f19808685030160408701526112d684836111f8565b935060408701519150808685030160608701526112f384836111f8565b93506060870151915061131160808701836001600160a01b03169052565b60808701516001600160a01b03811660a0880152915060a087015160c087015260c0870151915061134660e087018315159052565b60e087015191508086850301838701525061136183826111f8565b9695505050505050565b60208082526021908201527f436572745265673a204e6f7420616e20617574686f72697a65642069737375656040820152603960f91b606082015260800190565b600082516113be8184602087016111d4565b9190910192915050565b60208082526023908201527f436572745265673a20436572746966696361746520646f6573206e6f742065786040820152621a5cdd60ea1b606082015260800190565b600181811c9082168061141f57607f821691505b602082108103610e8157634e487b7160e01b600052602260045260246000fd5b601f82111561148957600081815260208120601f850160051c810160208610156114665750805b601f850160051c820191505b8181101561148557828155600101611472565b5050505b505050565b815167ffffffffffffffff8111156114a8576114a8610fce565b6114bc816114b6845461140b565b8461143f565b602080601f8311600181146114f157600084156114d95750858301515b600019600386901b1c1916600185901b178555611485565b600085815260208120601f198616915b8281101561152057888601518255948401946001909101908401611501565b508582101561153e5787850151600019600388901b60f8161c191681555b5050505050600190811b0190555056fea26469706673582212208d258871ae845fbebb8c38c31f03039d265cf5cdf4b47725e8212f71515dd3b964736f6c63430008140033",
  "linkReferences": {},
  "deployedLinkReferences": {}
}